:020000041000EA
:1000000000B5324B212058609868022188439860DF
:10001000D860186158612E4B002199600221596106
:100020000121F02299502B49196001219960352056
:1000300000F044F80222904214D00621196600F024
:1000400034F8196E01211966002018661A6600F04E
:100050002CF8196E196E196E052000F02FF8012189
:100060000842F9D1002199601B49196000215960AB
:100070001A491B48016001219960EB211966A021F2
:10008000196600F012F800219960164914480160C1
:100090000121996001BC002800D000471248134993
:1000A000086003C880F30888084703B5996A0420EC
:1000B0000142FBD001200142F8D103BD02B5186610
:1000C0001866FFF7F2FF186E186E02BD00000240BE
:1000D000000000180000070000035F00212200005C
:1000E000F4000018222000A00001001008ED00E03C
:1000F00000000000000000000000000074B24E7A12
:1001000000200420F7010010C3010010C5010010F9
:10011000C1010010C1010010C1010010C101001097
:10012000C1010010C1010010C1010010C701001081
:10013000C1010010C1010010C9010010CB01001065
:10014000CD010010CD010010CD010010CD01001037
:10015000CD010010CD010010CD010010CD01001027
:10016000CD010010CD010010CD010010CD01001017
:10017000CD010010CD010010CD010010CD01001007
:10018000CD010010CD010010CD010010CD010010F7
:10019000CD010010CD010010CD010010CD010010E7
:1001A000CD010010CD010010CD010010CD010010D7
:1001B000CD010010CD010010CD010010CD010010C7
:1001C00000BE00BE00BE00BE00BE00BEEFF3058054
:1001D000103800BEF2EB88718CCC0110B4CC011049
:1001E0003402001090A31AE700201F49086006C8D7
:1001F00081F3088810471D48006800282FD10DA4FE
:100200000ECC002902D000F012F8F9E71849194A7B
:10021000002000E001C19142FCD1174988471749ED
:1002200088471749884700BEFDE701C901C29A42C5
:10023000FBD37047B4CC0110C0000020482600203A
:100240003CF2011000000420000004203CF20110E8
:10025000001004200010042000000000704709482E
:1002600003F0B4FD0047000008ED00E0000000D0FE
:1002700048260020B83800201D2300105503001028
:10028000512400105756000006005250ABB3605383
:100290001C9C011006005250861C03022C9C01106D
:1002A000060052505422A29D349C01100500525069
:1002B000DE65F4683CF20110F8B5C0460448054B11
:1002C00010B5834203D0044B002B00D0984710BDDB
:1002D0004826002048260020000000000648074964
:1002E000091A8B10C90FC91810B5491003D0044B57
:1002F000002B00D0984710BD48260020482600203B
:100300000000000010B5074C2378002B09D1FFF73F
:10031000D5FF054B002B02D0044800E000BF0123AD
:10032000237010BD7829002000000000489B0110B8
:10033000054B10B5002B03D00449054800E000BF71
:10034000FFF7CCFF10BDC046000000007C29002054
:10035000489B011010B505F049F80A4801F09AF8D9
:1003600007F022FC084C07F071FC0028FBD007F0D6
:100370004FFC07F067FC837842780178200005F095
:1003800029F8F0E710270000489B011030B5302015
:1003900083B004F0A1FD0F4B040001930A230C224B
:1003A0000D490093013307F0AFFD0C4D48202C6040
:1003B00004F092FD02230400296801930D33032207
:1003C0000093053307F0D8FD2100054808F0F2FF3F
:1003D00003B030BD20A1070000000440B03200206F
:1003E000F4360020D0231B061B68934A9900F0B511
:1003F000DE468B4651585A4253412F2257464E46AD
:1004000045465B4293439A468C4BE0B59C4683B08D
:1004100000260191E244002934D0894B9946524686
:10042000F30808339B009D58012334009846083692
:10043000002D1ED00F212000294001342D09002954
:1004400015D04B465A469A58434683401A420CD11F
:1004500007220F000240920097403A00C308794FEC
:100460003C339B00DA51019B9847002D01D0B442E8
:10047000E0D3202ED3D103B0F0BCBB46B246A94690
:10048000A046F0BD6E4E5F4600210F23B346CC0858
:1004900022005046083292001258002A00D1A3E0F0
:1004A0001800104080461009134211D05D46EE59E5
:1004B000B14601268E40B4464E4665462E4204D1D2
:1004C0004646604D3C34A4006651002800D18BE0C4
:1004D0001C000440A446140A034211D001265D46C4
:1004E000481C8640ED59354208D165462D01AC4681
:1004F0006646C008534D3C3080004651002C73D0F6
:10050000180020408446100B234208D001265D4687
:100510008C1CA640ED59354270D0002864D01C00D8
:100520000440A446140C03420AD00125C81C85408F
:10053000A8465D464646ED59354269D0002C53D059
:10054000180020408046100D23420CD03C4D0C1D5D
:10055000AC460125A540A94665464E46ED593542B3
:1005600060D0002840D01C000440A046140E034276
:1005700015D0334D481DAC4601258540A94665463A
:100580004E46ED59354208D145462D05A84646460A
:10059000C0082C4D3C3080004651002C24D018005F
:1005A00020408046120F234223D0254C881DA446AC
:1005B000012465468440ED59254206D14446C008D1
:1005C000204D3C30240680004451002A0CD00124E8
:1005D0006546C81D8440ED59254205D1C008194C17
:1005E0003C301207800002510831202900D04EE72C
:1005F00041E7002AF8D012488446E8E765462D0214
:10060000AC466646E4080F4D3C34A400665184E7CE
:1006100065462D03AC466646C0080A4D3C30800056
:1006200046518BE745462D04A8464646E408054D4D
:100630003C34A400665194E71C3200203041014054
:100640006038002000400140094A10B5944640241B
:10065000830063441A68C0006240803414408022E2
:10066000520113431C60034B9C466044416010BD23
:1006700004C0014000400140074B80009C4660449C
:100680000368C90092000A435A400C231A40802391
:100690005B0103431A60704704C00140F8B51D00B8
:1006A000D0231B061C680600604244412F20644290
:1006B00084432748F7088446072030408000814063
:1006C0003800244E3C3064448000BF008151E4195E
:1006D000002A11D080229201224311601C681E4E14
:1006E000A400A359002B15D0002D25D0A551012120
:1006F0000D2000F0EDF8F8BDC022920122431160F8
:100700001C68154EA400A359002B0CD0002D18D046
:10071000A551F0E7002DEAD000220D200F49A55188
:1007200000F038F9E3E7002DE5D000220D200B4959
:10073000A55100F02FF9DEE70D20084900F024FA5A
:10074000D4E70D20054900F01FFAA551D3E7C046B4
:1007500030410140004001401C320020E503001000
:100760000123D0228340120693629361094A4021FB
:100770009446830063441A68C0004A4080311140A7
:100780008022520113431960034B9C4605236044A9
:100790004360704704C0014000400140024B1868AC
:1007A0008007C00F7047C04600C0064070B5EFF329
:1007B000108C72B60D4D2B68002BFCD0BFF35F8FF1
:1007C0000724CB08C618C05C01230C40A3401C00C2
:1007D0000440034207D118433070BFF35F8F2C6091
:1007E0008CF3108870BD100001F036FE2C0100D093
:1007F000F8B54746CE46884680B5EFF3108C72B602
:100800001C4D2C68002CFCD0BFF35F8F9A4222D87D
:1008100007210126894602E00132934218D34D4652
:1008200037001540AF40D4080119045D2742F3D1C9
:1008300010003C430C70BFF35F8F00220D4B1A6019
:100840008CF3108800280EDBC0BCB946B046F8BD5A
:1008500001204042EFE7BFF35F8F00232B608CF352
:100860001088012040424346002BEDD0089801F04B
:10087000F3FDC0462C0100D00021044B044ABFF315
:100880005F8F02C39342FAD17047C046000100D087
:10089000800100D0044A1078431CDBB2172B00D92A
:1008A000102313707047C046641F002010B5064B1C
:1008B000064C82B00100009318221F232000FFF78E
:1008C00097FF02B010BDC046649B01103432002077
:1008D00001238340002904D0034A1360034A1360B4
:1008E0007047034A1360FBE780E200E000E100E0AC
:1008F00080E100E001238340014A13607047C04655
:1009000000E200E0084B10309B688000C358002BC9
:1009100007D0064A00209B1A2F229A424041C0B2BB
:1009200070470020FCE7C04600ED00E0681F002093
:10093000024B10309B688000C058704700ED00E00B
:1009400070B50D00EFF3108672B60F4A1368002BD6
:10095000FCD0BFF35F8F0D4B10309B6884001B5998
:100960000B4A934203D09D4201D001F08DFD074B0D
:100970009B681D51BFF35F8FBFF35F8F0022024B57
:100980001A6086F3108870BD240100D000ED00E0ED
:10099000CD010010F0B557464E46DE464546E0B55F
:1009A00085B0060000911700EFF3108B72B66A4A0B
:1009B0001368002BFCD0BFF35F8F0025674B5D579A
:1009C0009A46002D00DAA9E06B00654C01935B1993
:1009D0009B009846A146C1444B4652469B7910362F
:1009E0001370604BB6009B6899590B1B2F2B33D9A2
:1009F0005D4B994200D0ACE0019B42469C465B4B6C
:100A00006544AD0063535A4B0232A218043B9B1A53
:100A10001B05584A5B0D651913436B80564B01212A
:100A2000AB80FF23AB71009BEF71AB604B460B4378
:100A300019004C4B9B689951BFF35F8FBFF35F8FD9
:100A40000022454B1A608BF3108805B0F0BCBB4602
:100A5000B246A946A046F0BD01200A008243D379E0
:100A60008C46BB4231D84546130044491B1B5B41B1
:100A70005943090D3D4B63533D4B02356519043B0A
:100A80005B1B1B053B4D5B0D2B43AA464D466B8004
:100A90000425AC465546E044131F44441B1B1B056C
:100AA0005B0D1D434B46997100999D8099604946A5
:100AB000DF71334B01431360BBE75800C01880005F
:100AC0002018C179B9422FD902000623D356002B32
:100AD000F3DA02932B4B61460393131D9A460423CA
:100AE0005B429C46E14450464B461B1A1B055B0D7E
:100AF0009C46204B9571984663464046034393803D
:100B0000019B5A199200039BA418A380029B1C4AC4
:100B1000A371009B2260E771A3608AE701F0B4FC37
:100B2000002553465D574FE7908802934005131DFB
:100B30009A46031561469C464046D44463460430B9
:100B40002018181AE0230005400D1B0218430390DB
:100B5000C5E701F099FC4FE7240100D0AF38002031
:100B6000681F002000ED00E0CD01001000A1FFFF94
:100B7000981F002000E0FFFF01BDFFFFAAAA0000B0
:100B80000148804701BD0000F8B5DE4657464E4695
:100B900045460C00E0B5EFF3108872B65B4A136867
:100BA000002BFCD0BFF35F8F594B5A499A68030062
:100BB00010339F00D5599C468D4238D0A54248D06D
:100BC000554EAA1B2F2A32D8012213008340994682
:100BD0005248006803409A464B4651480360BFF3B1
:100BE0005F8FEFF305839B46002B34D09C4501D0EB
:100BF00001F04AFC01232A009A439068844208D1FC
:100C000072E04B005B189B00F3189868A04232D04A
:100C10001A00062151560029F3DA844250D0534677
:100C2000002B24D04A463F4B1A603C4B1A60384B8D
:100C30009B68DD51BFF35F8FBFF35F8F0022334BA3
:100C40001A6088F31088F0BCBB46B246A946A0469D
:100C5000F8BD0D00EBE72B00934398681A0084421F
:100C6000D7D106201856002809DA0D0030E04A4690
:100C70002B4B1A60DBE706201856002821DB4200C8
:100C80001118890074188B46A1689960E179D971AF
:100C9000062161569971002924DBA488F11A6405A4
:100CA00024155C44091909051F4C490D21439980FD
:100CB00013181E4A9B001178F31899711070AEE753
:100CC00013005946002914D1FF31917118499180C0
:100CD00016490A789A71174A9B1B5B415A43120DB9
:100CE0000A709CE71249E2E706201056130000281C
:100CF000C5DA114A1149D21A083A5002400D01438F
:100D000099800F4952080A43DA8088E7240100D00D
:100D100000ED00E0CD010010681F002000E100E0C0
:100D200080E100E080E200E000E0FFFFAF3800205B
:100D300001BDFFFFAAAA0000A21F002000F0FFFFD4
:100D400000F8FFFF70B5EFF3058101240443EFF3D2
:100D5000108C72B6214A1368002BFCD0BFF35F8F52
:100D60001F4B05001F4AED1A6D416A43120D1E4DBF
:100D70008900AE6852B27658A6421CD00621595658
:100D800091421CD012215956914222D01E2159560F
:100D9000914220D02A2159560324914210D0134B5E
:100DA00019781A708171BFF35F8F00220B4B1A60A4
:100DB0008CF3108870BDAB680D4C5C50EFE70024DD
:100DC0006100091989005B18FF219971094999800F
:100DD000E5E70124F4E70224F2E7C046240100D04D
:100DE000681F0020AAAA000000ED00E0AF38002034
:100DF000CD01001001BDFFFF054B064A1360064AF6
:100E0000136053609360D3601361536193617047C3
:100E10008080808000E400E004E400E010B5084B2E
:100E2000084C82B001000093002205232000FFF748
:100E3000DFFC002801DB1F23181A02B010BDC046DA
:100E4000809B0110B4380020024B9C46614489000D
:100E5000016070474000003410B50400FFF71AFD30
:100E600001002000FFF7F0FFFF232371BFF35F8F26
:100E700010BDC04610B50400FFF70CFD01002000B6
:100E8000FFF7E2FFFF23A380BFF35F8F10BDC046D3
:100E900010B504000120FFF709FD034BC3189B00A8
:100EA0002360BFF35F8F10BD40000034034B9C46AE
:100EB000614489000160BFF35F8F704740000034D8
:100EC00083680B4810B584466144624412010901ED
:100ED00059189B185C684A680120944201D802D0D6
:100EE0000020C0B210BD1A680B689A42F9D8F7E723
:100EF000FFFFFF0F0A4B1968EFF3108072B60A6804
:100F0000002AFCD0BFF35F8F1B68BFF35F8F002206
:100F10001A6080F3108840BF002000217047C0464F
:100F200074380020F8B557464E464546DE46E0B5D3
:100F300098460CAB1C780DAB1B78070091469A467F
:100F40000668002C57D1B47B002C3AD0650031687C
:100F50002D19033D49194B78B373002B00D1F3735E
:100F600000238B704B700B702D4BE218BB68120185
:100F70009B184A461A6042465A600A9A9A600B9A2F
:100F8000DA6000238B704B700B70737B9B46002BD9
:100F900024D0220073685946B06898475B465B00CE
:100FA00032685B44033B5519D21800280FD05B46CA
:100FB000AB701378002B24D15B46147073735C45BF
:100FC0000DD0F0BCBB46B246A946A046F8BD947011
:100FD0002B78002B00D053705B462B7074734A46FD
:100FE0004346387D00F03AFC051E11D10E9B002BC4
:100FF000E7D01D70E5E7650031682D19033D4919FB
:10100000B2E76B705B46147073735C45D9D1E6E749
:101010005346002BEAD12100386800F055FEE5E781
:10102000FFFFFF0F664B8200F0B5D4580023DE4669
:1010300057464E4645469B46E0B58DB0099000F0B8
:1010400079FB626806000F00EFF3108872B6136830
:10105000002BFCD0BFF35F8F23689C465B7B9946D7
:10106000002B0DD16368BFF35F8F4A461A6088F387
:1010700010880DB0F0BCBB46B246A946A046F0BDF4
:10108000504BA5684B441B01ED18286869680200A5
:101090000B00921BBB41002B0EDD02000B000998D8
:1010A00000F0DCFB6368BFF35F8F5A461A6088F379
:1010B00010880028C3D1DCE7002B01D1002AECD135
:1010C0000021604600F06CFDAB680200286869688A
:1010D0009A46EB680A900B9108934B465D1EE368B5
:1010E000585D6368000202432261BFF35F8F5A4676
:1010F0001A6088F310885346002BBAD04B460899E3
:101100001843D047626806900791EFF3108872B6D3
:101110001368002BFCD0BFF35F8F079B002B27DBEE
:10112000069A079B1100194302D02369002B3BD17B
:101130002368D97B002906D01A6848004118521844
:101140004946033A51709A7B002A01D14A469A7364
:101150004A46DA73E268535D013353555B462361B7
:101160006368BFF35F8F5A461A6088F3108866E79A
:101170002369002BDCD00A9A0B9B06980799121A58
:101180008B41002B02DA01220F4B524200210491C5
:10119000013103914946029108992000019151467D
:1011A0000091FFF7BFFED9E700F0C4FA069A079B4B
:1011B00012184B41002BE9DA0122034B5242E5E7BA
:1011C000E4360020FFFFFF0FFFFFFF7F10B5144C38
:1011D0006368002B04D00A211248FFF735FE10BDCA
:1011E0002300114A1021206800F0E6FB032000F0E4
:1011F00095FA032000F09AFB03200C4900F0E8FA6E
:10120000FFF748FB0A4B9C4603232375D0231B069C
:101210001B6860446375074B80006060DC60DAE740
:10122000B01F002074380020C10E001025100010DF
:1012300040000034E436002000487047B01F002012
:10124000F0B54E465746DE464546E0B587B00193B9
:1012500012AB1B780600059300239A46994600922C
:101260007268EFF3108B72B61368002BFCD0BFF3DB
:101270005F8F3568AC7B002C00D170E067002B6875
:101280003F19033FDB195A78AA73002A00D1EA7389
:10129000464AA118B26809015218009801991060D5
:1012A0005160109991601199D1604A469A705A70B4
:1012B0001A706B7B9846002B61D022006B68414608
:1012C000A868984743465B002A684344033BD71904
:1012D000D21800284CD04346BB701378002B00D0A6
:1012E0007B70434614706B73444549D0F3681B19F7
:1012F000013B18787368BFF35F8F4A461A608BF31F
:1013000010885346002B08D10002204307B0F0BCE0
:10131000BB46B246A946A046F0BD059B002B43D074
:10132000109B00201199984703000B433CD002907A
:101330000391002931DA009B019C0299039A5B1A00
:1013400094418022009301941206944204D3012315
:10135000174C5B4200930194059B9A4680E77368A3
:10136000BFF35F8F1C608BF3108801204042CDE7F4
:1013700094703B78002B00D0537043463B706C73E5
:10138000307D009A019B00F069FA82460028ADD0BA
:101390002100306800F098FCA8E700F0CBF9029B30
:1013A000039C1B184C41CCE70020AFE7FFFFFF0F69
:1013B000FFFFFF7F407D7047F0B5C64600B584B0A3
:1013C00004000D0000F0B6F924184D41002D02DA9A
:1013D00001242B4D644206267642F71736196F41D9
:1013E000AF4214D811D000F0A5F932003B00121A18
:1013F0008B41002B15DC002B3ED02000290000F093
:10140000D7F904B080BCB846F0BDA642EBD900269F
:10141000002700F08FF932003B00121A8B41002B9D
:10142000E9DD002302930193164B32000093164826
:101430003B00FFF705FF0130DFD00023390098465D
:10144000124A1348536A994204D8976ABE42D4D9C3
:101450009942D2D10768EFF3108C72B63B68002B2B
:10146000FCD0BFF35F8F0368BFF35F8F47461F60F9
:101470008CF3108820BFE5E7002ABED0D1E7C04634
:10148000FFFFFF7FF50E0010B01F00200040054059
:1014900074380020F0B5C64600B584B0040000F0F2
:1014A00049F9FA2206000F002000002300219200D3
:1014B00003F040FB8019794104000D1E02DA01247B
:1014C0002A4D644206267642F71736196F41AF421D
:1014D00014D811D000F02EF932003B00121A8B41C3
:1014E000002B15DC002B3ED02000290000F060F915
:1014F00004B080BCB846F0BDA642EBD90026002758
:1015000000F018F932003B00121A8B41002BE9DD84
:10151000002302930193164B3200009315483B00C1
:10152000FFF78EFE0130DFD0002339009846124AC3
:101530001248536A994204D8976ABE42D4D9994254
:10154000D2D10768EFF3108C72B63B68002BFCD049
:10155000BFF35F8F0368BFF35F8F47461F608CF355
:10156000108820BFE5E7002ABED0D1E7FFFFFF7F4C
:10157000F50E0010B01F0020004005407438002018
:10158000F0B5EFF30583C64600B505000C0084B046
:10159000002B0FD02F4A0020536AA34206D3926A31
:1015A0001B1BAA4240415A1E9341184304B080BC01
:1015B000B846F0BD284E02930193284B02000093D9
:1015C00030000B00FFF73CFE00280CDC214A002015
:1015D000536AA342EAD3926A1B1B591E8B41AA424B
:1015E00040411843E2E720BF7268EFF3108772B6FC
:1015F0001368002BFCD0BFF35F8FC3B29C46FF2261
:101600003368024098465B7B63450DD043461968BA
:1016100053009B18C91803398B78002B04D1326909
:10162000904209D1336107E0F168030A8A18013A50
:101630001278DBB29A4207D07368BFF35F8F002243
:101640001A6087F31088A5E76146404600F03CFB2E
:10165000F2E7C04600400540B01F0020F50E001024
:10166000F0B5EFF30582D6464F4646461000C0B5AA
:101670001038EFF3108872B6214C2368002BFCD091
:10168000BFF35F8F0123190081401E4D1F00696366
:10169000AA461D4D29601D4D2E78AC463500C5402B
:1016A0002F402B4215D053465F6A194B8500EB58EB
:1016B0009F4218D36246174B8E43EB581670BFF308
:1016C0005F8F0022226088F31088002B06D0984795
:1016D00004E0BFF35F8F276088F31088E0BCBA4650
:1016E000B146A846F0BD0C4B92009C46624413687C
:1016F0001360BFF35F8F0023236088F31088EDE74A
:10170000280100D0004005403C700540B33800205F
:10171000803800200C310020D03F054010B5034B2D
:1017200001001800024AFFF741F810BDAD38002053
:101730009C9B0110034B596A0A00986A596A8A42B5
:10174000FAD170470040054070B504000D00174AFB
:10175000536A1900966A536A8B42FAD13000190015
:1017600024184D41AB4216D813D0104B2A005B6AA7
:101770009D4203D90D494B6A9342FCD3934207D152
:101780000A4A02E0516A994202D1916AA142F9D310
:1017900070BDA642E9D9054B5B6A1C005A1CEFD00C
:1017A000012201246442E5175242E3E7004005406C
:1017B000064A536A9942FCD807D1044B02E05A6AA0
:1017C000914202D19A6A8242F9D3704700400540A3
:1017D00070B504000D00EFF3108672B61A4A136854
:1017E000002BFCD0BFF35F8F002D1BD02000FFF734
:1017F0009FF8164981420AD02000FFF7A1F8012185
:101800002000FFF765F80123A340114A1360114B34
:10181000A400E550BFF35F8F00220B4B1A6086F3E4
:10182000108870BD0121A1400A4BA200D5500A4B7F
:1018300020001A788A4305491A70FFF7A5F900219C
:101840002000FFF745F8E5E7280100D061160010F9
:10185000386005400C310020B3380020F0B54F4609
:10186000D6464646C0B507002B4C616A0D00A66AF5
:10187000616AA942FAD18B4208D805D00120E0BCA8
:10188000BA46B146A846F0BDB242F7D9EFF3108A86
:1018900072B6224801680029FCD0BFF35F8F012592
:1018A000BD401F491C4C8846097889462943C9B266
:1018B0008C46414660460870391D890065630A51AF
:1018C0001849B8004350216A0020294219D0616AA2
:1018D0000800A66A616A8142FAD18B4219D801D107
:1018E000B24216D8CC450BD00B4B1F221D625D6354
:1018F00001233A4093400C4A136043464A461A700B
:101900000120BFF35F8F0022044B1A608AF3108816
:10191000B5E70020F5E7C04600400540280100D0AB
:10192000B33800208038002080E200E0EFF3108C14
:1019300072B60A490B68002BFCD0BFF35F8F0123FE
:101940008340074A0748136202789A430270BFF344
:101950005F8F00230B608CF310887047280100D044
:1019600000400540B338002070B506000D0014009B
:1019700000291CD0002A12D0736880689847630041
:101980006A0031681B195219033B033ACB188918B6
:10199000002806D09D700A78002A0AD10C70280011
:1019A00070BD8C701A78002A00D04A701D7020001B
:1019B000F6E75A700C70F2E710B583600023CCB2E2
:1019C00043730133426004738373C4730068421C21
:1019D000012C05D90133DBB2137003329C42F9D1DB
:1019E000FF230B405A00D318C0180023033843705C
:1019F00010BDC046F8B5CE46474605000C0080B580
:101A0000002907D04E0003687618033E9A195778CC
:101A1000002F04D12000C0BCB946B046F8BD790003
:101A2000C9190339884643445978894600215970B9
:101A300051706B683A0021008068984743462A68D5
:101A4000D3189219002811D09C701178002900D069
:101A500059701770270049462800FFF7CBFF39005F
:101A600002002800FFF780FF0400D3E79770197881
:101A7000002900D051701C70EDE7C046F8B55746FC
:101A80004E464546DE464C00E0B564181700026835
:101A9000033C0500105D13190E009C46002854D02D
:101AA000430098461B18033BD31859788A460029EF
:101AB00020D1002F13D0EC7B002C51D063001B19D8
:101AC000D318033B5E70AB7B002B3CD0EE73002839
:101AD00007D043009846434619180339531800228B
:101AE0009A70002362465370F0BCBB46B246A946CA
:101AF000A046F8BD49005144033952185178884630
:101B00000021517089465970524601002800FFF7A4
:101B10002BFF43468246002B07D05B0029684344D5
:101B2000033BCB185A78002A1FD142465146280061
:101B3000FFF71AFFA4462A689444002FC7D0EC7B15
:101B4000002CC0D0BAE7AE73C0E7002FC9D0EC7B41
:101B5000002CB3D1AB7B002B20D1A973E973C0E774
:101B6000AB7B002BEFD0EE73B5E750008018033845
:101B700009184878834648464870587041462800FE
:101B8000FFF7F2FE594680462800FFF733FF414633
:101B900002002800FFF7E8FE8046C6E7E973A0E7E9
:101BA000F8B557464E464546DE46E0B5467B0268E8
:101BB0007500AD19033D0F00515D531904009C469B
:101BC000002956D04B0098465B18033BD318587831
:101BD0008246002822D1002F13D0E57B002D53D060
:101BE0006B005B19D318033B5E70A37B002B3ED0C8
:101BF000E673002907D04B0098464346581803382F
:101C0000131800229A7000236246300053706173EB
:101C1000F0BCBB46B246A946A046F8BD40005044C1
:101C20000338121850788046002050708146587052
:101C300052462000FFF798FE43468246002B07D00D
:101C40005B0021684344033BCB185A78002A20D11B
:101C5000424651462000FFF787FEAC46226801004D
:101C60009444002FC5D0E57B002DBED0B8E7A67305
:101C7000BEE7002FC7D0C57B002DB1D1837B002BE1
:101C800020D18673C673BEE7A37B002BEFD0E6732B
:101C9000B3E750008018033809184878834648464F
:101CA0004870587041462000FFF75EFE5946804656
:101CB0002000FFF79FFE414602002000FFF754FE80
:101CC0008046C5E7C6739EE770B5040000292CD096
:101CD000437B8B422ED005684800401803382818F3
:101CE0008278002A21D053009B18033BEA5CEE184F
:101CF0008A4202D11BE0002A08D053009B18033B04
:101D0000EB185A788A42F6D142785A7000230122A1
:101D1000837043702000FFF7B1FE617B020020005A
:101D2000FFF722FE6073012000E0002070BD4378C1
:101D30003370EBE701221900FFF7A0FEF2E7C0467F
:101D4000F8B5CE464746040080B506200E0000F0E8
:101D500023FA051E75D0534B80229C4200D192E09D
:101D6000514BD2031A60514B51491A6010008B68D5
:101D70009843FBD14F4B504AE31859424B418021C5
:101D80005B0049000620995200F006FA3100C000BD
:101D900002F076F8C30926D0484A934200D876E08C
:101DA00000234749474A6162A362256B9046EB07CF
:101DB00021D52200C02330329B011343424A062022
:101DC0001A60666AA36AB601F61800F0E5F93F49A1
:101DD00002F056F8B6020100300002F051F800217E
:101DE000FFF7B2FC07E04022012190466162A36246
:101DF000256BEB07DDD427008026E36A00232C3710
:101E000076013E4333600620256300F0C5F9414664
:101E1000800002F035F8236B05009846DB0715D4E7
:101E20006023E26A5A400E33134033604346236313
:101E3000802310229B013B431A60234B236303231F
:101E4000A3642800C0BCB946B046F8BD2200C02338
:101E500030329B0113431C4A06201A60636AA26A4F
:101E60009B019946914400F097F94B4617499B0214
:101E7000994602F005F80100484602F001F80021F9
:101E8000FFF762FCCCE7084B12041A606BE77F2275
:101E9000990188460240013252081900904413000B
:101EA000A4E7C0460080034000E0004000F000408E
:101EB00000C000400080FCBF90380020FEFF000002
:101EC000FFFF0000C0FF3F00010300004E0E0000B6
:101ED00010B50C2082B000F0B7F9FEF75FFC0028C7
:101EE00010D08B4B8B488B498B4A18605960986097
:101EF000D960186159619861D961186259625A6252
:101F000002B010BD854CA06700F0F4F90122844BAB
:101F10001A60636C012BFCD10322824B1A607F4A4A
:101F2000936B012BFCD1013301217F4A7F48009341
:101F3000043300F037F905237D4A009301217D48E1
:101F400000F030F97C4B5A68FF2A02D880225200F8
:101F50005A608022734B6E4C12011A60216900296D
:101F600007D0606901F08CFF013043001B18033B70
:101F7000FDD2E023704A714811680B4003600223D0
:101F80001168594001330B400421036093681942E2
:101F9000FCD080216A4B090119608021694B4900FE
:101FA00051602361684B5A68FF2A00D859600322A8
:101FB00001215B4B1A60644A93681942FCD0E0230C
:101FC0001068034061480360126803234A400221FD
:101FD00013405D4A036093681942FCD080215C4B3A
:101FE0000901196080215B4B4900516063615A4BC4
:101FF0005A68FF2A00D859608022584B12011A6093
:10200000E169002907D0606901F03AFF013043001F
:102010001B18033BFDD2E0234F4A11680B40504987
:102020000B6080214F4B090119608021394B490019
:102030005160E3614C4B5A68FF2A00D859608022F6
:102040004A4B12011A60216A002907D0606901F029
:1020500017FF013043001B18033BFDD2E023424A27
:1020600011680B4042490B608021424B0901196005
:1020700080235B0053608022264BD20223623E4BBA
:102080005968914200D25A6080223C4B12011A607A
:10209000616A002907D0606901F0F2FE0130430057
:1020A0001B18033BFDD2E023334A11680B4034492F
:1020B0000B608021334B090119608023DB025360E0
:1020C000154B6362304B5A68FF2A02D880225200B7
:1020D0005A6080222D4B12011A60A169002907D095
:1020E000606901F0CDFE013043001B18033BFDD2B7
:1020F000E023254A11680B4025490B608021254BC0
:102100000901196080235B005360124BA361F7E65D
:1021100048260020006CDC021BB700000080004055
:102120003CB0004030B00040002F685900800240B1
:10213000008C864700C00240308000403090004054
:1021400030A00040001BB7003C8000403C900040A5
:102150003CA00040405973075480004054B00040F8
:102160005490004054A000406080004060B00040A7
:102170006090004060A000406C8000406CB0004067
:102180006C9000406CA000404880004048B0004087
:102190004890004048A00040014B8000C058704764
:1021A00048260020F8B5040022481E0017000D0044
:1021B00001F066FE0100380001F062FE069B360465
:1021C0001B031E432368002B22DB1B4B1B49E31818
:1021D0005A1E93418022920194465B421B0B184A7F
:1021E0001B0363441360174A13601F008A689743F8
:1021F000FBD1C022231D92011A4321232560A06038
:1022000013602368002BFCDA0823E6601360F8BD36
:102210003F2322681340AB42D7D1A3681B051B0D97
:102220008342D2D1EE22E368D2021340B342CCD132
:10223000EDE7C046001BB7000040FDBF00C00040F6
:1022400000E0004000F000408023024A9B0003436E
:10225000D36270470080054010B580241C4BE40514
:102260001C6000281AD001231A4C18431A4BDC6159
:102270001A4C44401C62596298628021144BC90573
:102280001960174817490860E021C9041960002A3D
:1022900007D18022144B12061A6010BD0E4BD86174
:1022A000EBE753019B1A9B009A18802312015B04F1
:1022B0009A4209D213000D490B60074B5A608022E5
:1022C000094BD2051A60E8E7094B1A00F3E7C0464C
:1022D00000B00540D3C007B0008005402D3FF84F47
:1022E000FCFF01000820014000A00540D03600207E
:1022F000FFFFFF00AA23064A1B0113602F23054995
:10230000D360054B19605368002BFCDA7047C04658
:102310000040024000B0FA00006002402C4B2D4A01
:1023200070B51A602C4A2D4B2D491A6014008B6829
:102330009C43FBD12B4D2C4EB54208D2013E761B5F
:10234000B60808CD984723000134B342F9D1FFF70E
:10235000BFFD264A214B1A60214A9368DB43DB010B
:10236000DD09002BF9D14022214B224C224E9A67E5
:102370005A671A67DA66B44208D223682000002B35
:1023800020D00834FEF776FDB442F6D31B4C1C4E29
:10239000C022B168200002F099FDB460FEF76CFA2B
:1023A000FEF72AFDFEF712FF164C174EB44208D274
:1023B000013E361BB60808CC98472B0001359E42DB
:1023C000F9D170BD0834FEF747FDB442D5D3DDE73F
:1023D00000E00040BFCDFBFEFE7F3C0000F000406F
:1023E00000C000402426002034260020FFFFFF010B
:1023F00000F001401C2600202426002000000020C0
:1024000000ED00E0342600204826002000BEFDE755
:10241000094A03001068002805D00849C3188B42F8
:1024200007D81360704706480449C31810608B42F0
:10243000F7D901204042F5E7B43200200000042023
:10244000B838002000207047012040427047C04645
:1024500010B5FFF7DBFFC0460FB400B5084883B0E6
:1024600002F01EFE049B002B07D005A91800019165
:1024700001F08CFC034802F013FE0120FFF7C6FFB9
:10248000C09B0110249D011010B50148FFF7E4FF27
:10249000D09B01109A4200D2885470477047C046C2
:1024A000F8B55746DE464E464546E0B599460A9B86
:1024B00007009A460D9B884693460B9C9B073BD191
:1024C0000C9B9C423DD21E1B0B9415000C005E44DD
:1024D0002A004B46013521002020B847B542F7D1EC
:1024E000A0460B9C002C20D0454636195346321B83
:1024F000013C185D29004B46B847002CF6D12B0053
:10250000350098460D9B9B070FD55B46EC1A0C9B3C
:10251000A3420AD9464698462A004B46310020205D
:102520000134B84701354445F6D32800F0BCBB461A
:10253000B246A946A046F8BD16001500002CD3D11E
:10254000E0E716001500002CCED1EEE7F0B54546C9
:10255000DE4657464E46E0B585B09C4610AB1B782C
:10256000149F934698460F9C129E139DBB074CD414
:10257000002D42D1B44248D201233B4099460E9BE4
:10258000013B9A46302304E0524601341355A642DB
:1025900001D9202CF8D14B46002B00D183E00E9BB3
:1025A000013B99463023A54205D82EE04A46013426
:1025B0001355AC4229D0202CF8D1FB060CD57B0555
:1025C00054D4A64263D0A54261D0119B102B50D0A9
:1025D000022B57D0202C32D1202301930E9B5A4638
:1025E0000093039763460295FFF75AFF05B0F0BCCE
:1025F000BB46B246A946A046F0BD01233B409946E2
:1026000001233B422AD1B442B9D3FB061CD57B053A
:10261000DBD4002CD5D1119B102B5BD0119B022B4E
:102620006BD0302301240E9A13704346002B10D137
:102630007B073ED52B260E9A631C1655CDE723004B
:10264000013430260E9AD654202CC5D04346002B98
:10265000EED02D260E9A631C1655BEE74346002B7E
:102660002FD0013DB44200D289E798E7119B102B8F
:10267000B2D1BB0637D5202CAED058230E9A1355B5
:102680000134A7E7202CA7D02300013407E0631E04
:10269000012CC0D0119A102A31D0022AD1D1622641
:1026A0000E9AD65496E7FB06CED57B0500D488E774
:1026B0008BE723003E0790D520260E9A013316554E
:1026C0008BE70C233B405A1E9341ED1AB44200D2D3
:1026D00055E764E7BB060ED478230E9A02241370E4
:1026E00030235370A1E7202C00D175E778230E9A90
:1026F000135501346EE75823EFE76033EDE70E9A88
:10270000A61E91464E44BA0602D55822327098E76A
:102710007822327095E7C04610B5002800D110BD70
:1027200002F074FCFBE7C0460B0010B5002802D095
:1027300049681B68984710BDF0B55746DE464E46BF
:102740004546E0B595B083460F00924698461E9ADE
:102750001F9B10001900209E01F05BFE002800D096
:10276000EAE11E981F990122C54B524201F036FE44
:10277000002800D014E11E981F990122C14B52423B
:1027800001F042FE002800D0E9E01E981F990022C7
:10279000BD4B01F039FE002800D0C8E01E981F99FB
:1027A0000022BA4B01F01AFE002800D0BFE01E98AC
:1027B0001F990022002301F011FE002800D0E4E060
:1027C00000230B93229B5B0500D4062600243023B4
:1027D00007E0172106AA013452181355013E202C98
:1027E00001D0092EF5D81E981F9901F03DFEA84B87
:1027F000F2009B181A685B6805000892099301F0C3
:102800001BFE02000B001E981F9901F074FD089A30
:10281000099B01F0A0FD0690079101F049FE814659
:1028200001F006FE02000B000698079901F063FD17
:102830000022984B0690079101F0E6FD002800D198
:102840000DE101239C46E144484601F0F1FD020000
:102850000B000898099901F0C7FD002802D0002359
:1028600099460135002E00D1D9E006954D46B9466E
:1028700014E006AA944617230A2163442800013471
:102880001F1901F0FDFA3031397028000A21013E8C
:1028900001F0F6FA092D00D817E10500202CE8D147
:1028A0004F46069D20240CAE06AA17239446634487
:1028B00099465B46B34606930FE04B4628000A2133
:1028C0000134E61801F0B4FA3031280031700A21E1
:1028D00001F0AEFA051E00D1E4E0202CEDD1069BFC
:1028E0005E469B460323229A1340012B18D1219B5D
:1028F000002B15D00B9B002B00D1FDE0219B013B51
:102900002193202B0CD93023219A07E0172006A908
:10291000013409180B55944200D3CCE0202CF5D19A
:10292000229B01940393219B0096029322E0229B19
:1029300052460493219B3900039358461E9B1F9CCB
:10294000029600930194434600F04AF904002000E7
:1029500015B0F0BCBB46B246A946A046F0BD229BCE
:102960005B070FD403224C4B2299019203912199CA
:10297000009302914346524639005846FFF790FDB6
:102980000400E4E70422454BEEE71E9A1F9B00205B
:10299000002101F0B0FC01231E901F910B9311E761
:1029A000229B54469B0711D1219B042B0ED9219BBE
:1029B00055469C465E46043C64442A004346013525
:1029C00039002020B047A542F7D1B346344D260048
:1029D0002B1F99465B46A3461C003200E87843460D
:1029E0003900013DA04701364D45F6D123005C4634
:1029F0009B46229B04349B07A9D55346219AE31A90
:102A00009A42A4D95E461500220043463900202090
:102A1000B04753460134E31A9D42F5D897E72800A2
:102A200001F00AFD02000B001E981F9901F063FCE3
:102A30000022184B0690079101F0D0FC0CAE002844
:102A400000D031E7069807990022124B01F0DCFC18
:102A5000002800D028E7012301359D4324E7002208
:102A6000069807990B4B01F0B9FC002800D0F9E655
:102A70004B46002B5CD101239C46E144F2E6C04664
:102A8000FFFFEFFFFFFFEF7F65CDCD4165CDCDC1EE
:102A900010A901100000E03FE49B0110DC9B011035
:102AA000EC9B0110069B5E469B460323229A134033
:102AB000012B00D181E0202C00D131E70B9B002BB2
:102AC00027D02D23335501342AE74F46069D202C6D
:102AD00000D1E7E63022331907E0172006A90134B8
:102AE00009180A55202C00D1DCE6A342F5D12E228C
:102AF0000CAE0134F254D7E60C23229A134257D07D
:102B0000219B013B2193A34200D9FCE6202C00D15C
:102B100006E7229B5B0703D52B2333550134FFE6E1
:102B2000229B1B0700D4FBE6202333550134F7E634
:102B3000DB0700D496E69EE7229B55469B0711D102
:102B4000219B032B0ED9219B54469C465E46033D98
:102B5000654422004346013439002020B047AC428E
:102B6000F7D1B346B9465F461C4EEC1C2A00B0783C
:102B7000434649460135B847013EAC42F6D1229B57
:102B8000BB464F469B0700D4E1E65346219AE31A21
:102B90009A4200D8DBE65E46150022004346390023
:102BA0002020B04753460134E31AAB42F5D3CEE6BA
:102BB000219BA34200D9A6E6B2E6219B002B00D1BF
:102BC00079E70B9B002B97D0219B013B21939C42E3
:102BD00000D298E6202C00D073E7A1E6E89B011014
:102BE000F0B5DE4657464E464546E0B599B08146BB
:102BF0008B4692469846229A239B1000190001F0BA
:102C000008FC002800D0CAE0229823990122824BB8
:102C1000524201F0F9FB002800D0C0E0229823992D
:102C200001227E4B524201F0D9FB002800D0B6E0D1
:102C3000229823990022002301F0D0FB002800D025
:102C4000C9E1229B239C0893099408980999802341
:102C5000269ADB001A400D928022269C1201144015
:102C600022000B94269C07000E001C4200D0ADE011
:102C70000B00034300D0D5E0002A00D00AE2220076
:102C800006332493022313400C930223134200D0F3
:102C900002E2259B042B00D20FE2043B0B9300239E
:102CA00004250A93002222982399002301F096FB21
:102CB000002800D003E25A4B269A134004930B9B42
:102CC0000393249B0293089B099C0093019459460B
:102CD000434652464846FFF72FFD02002020269B20
:102CE0001F27034059424B415B421840531C089335
:102CF000594643464530C8470A9AD317D4185C4012
:102D0000D30F0A936B1E0B9308AB9C4600256744B8
:102D100001E0202D0FD020000A2101F0B1F801358B
:102D20007E193031317020000A2101F0A9F8260007
:102D30000400092EEDD8052306930B9B59460593F5
:102D4000002304930A3303930A9B4846029310AB73
:102D50000093089A43460195FFF7F8FB0C9B002B64
:102D60002DD05346C41A259BA34228D94D465F4611
:102D700081461E00534639001A192020434601346B
:102D8000A847A642F6D8534648462599C21A0132AA
:102D90000023914200D386E1013018180FE0269BF2
:102DA0000493259B0393249B0293229B239C0093D3
:102DB00001944346524659464846FFF7BDFC19B0B8
:102DC000F0BCBB46B246A946A046F0BD01432BD19C
:102DD0000B9B2200002B00D154E700230A93249B75
:102DE0000A9A0024934200DD85E12298239900226B
:102DF000002301F0F3FA002800D035E1269B084AB1
:102E000002941A408023DB0013430493259B039311
:102E1000089B099CCBE7C046FFFFEF7FFFFFEFFF5A
:102E2000FFF7FFFF06232493B44B70009C46400D30
:102E3000604401F001FBB24AB24B01F08CFAB24A95
:102E4000B24B01F061FA3603B14B360B3343040049
:102E50000D00380019000022AE4B01F04CFAAE4ACA
:102E6000AE4B01F078FA02000B002000290001F0BF
:102E70004BFA01F0F9FA0A9001F0DEFAA84AA94BE0
:102E800004000D0001F067FA0022A74B01F03CFAA4
:102E900001F0EAFAA54A0600A54B2000290001F03E
:102EA0005AFA040030000D000C9601F0C5FAA14A50
:102EB000A14B01F050FA02000B002000290001F0A4
:102EC0001AFA02000B0006000F0001F044FA32006B
:102ED00004000D003B003000390001F015FA00221B
:102EE0000E900F91954B2000290001F016FA002258
:102EF000934B01F009FA02000B002000290001F0B9
:102F00000CFA00228F4B01F0FFF902000B002000A9
:102F1000290001F002FA0D008021040032003B007C
:102F20000020C90501F0E7F902000B00200029008C
:102F300001F0EAF902000B000E980F9901F0EDF98B
:102F40000022734B01F0E0F97F4B0C9C9C466444DB
:102F50000022230501F0FFF906000F0002000B001C
:102F60000898099901F03AFA00280AD00A9B300023
:102F7000013B39000A930022714B01F0CEF90600A3
:102F80000F000A9A330063323900C62A12D802228F
:102F90002698042510400B9A0C90002A25D1259BD9
:102FA000042B05D9002800D0A1E0259B043B0B93FE
:102FB000042541E00222269810400B9A0C90002A2A
:102FC00012D1259B052B76D9002872D1259B05258A
:102FD000053B0B9334E0802212069446229B089313
:102FE000239B6344099330E605250B4300D1F6E6A5
:102FF00008980999554A564B01F0FEF9002808D067
:10300000089809990022534B01F0E8F9002800D0F4
:10301000E5E6249B002B1CD00D9B002B19D0249B94
:10302000013B2493259BAB4204D90C9B002B5AD027
:1030300002230C9300230B930A9B002B00D131E653
:103040000898099932003B0001F067F9089009914E
:1030500028E6259BAB42EDD90C9B002B43D00023E7
:103060000B9302330C93E7E78020269B3A4A000635
:103070001A40802384460294089C099D2900DB00A5
:1030800013430493259B6144220003930B00009299
:1030900001938EE60524A8E600230B930A930233DE
:1030A00004250C93FEE553468C46013B63441B1AF2
:1030B00072E602230C930525C2E70423EDE5802088
:1030C000089E099F000639008446269A224B6144D7
:1030D000134004930B9B32000393249B02930B0039
:1030E00000920193F3E5259B5B1B0B93A4E702235E
:1030F00004250C93A0E79C1A013C76E601FCFFFF37
:10310000FB799F501344D33FB3C8608B288AC63FD6
:103110000000F03F0000F83F61436F63A787D23F94
:1031200071A379094F930A400000E03F1655B5BBE3
:10313000B16B0240EF39FAFE422EE63F00002C4010
:103140000000244000001840FF0300002D431CEB4A
:10315000E2361A3F80842E41FFF7FFFFF0B5DE46CE
:1031600057464E464546E0B5A5B01E002E9B9246FA
:103170000C93CD4ACD4B80468B461A60002900D176
:10318000EAE1002330789946002800D1ECE1C84BF1
:103190004C460B93C74B454657460E930AE0631CBB
:1031A000984622003B005946A847444630780028FC
:1031B00000D187E001362528F1D108239A46043B47
:1031C0009946023B9846013B00229C460D9430787C
:1031D000711C0300203BDBB2102B03D80B9C9B001F
:1031E000E3589F460300303B89460D9C092B3AD992
:1031F000002398462A2800D1C1E000239A462E28B1
:103200004BD00300683BDBB2122B1ED80E999B00FB
:10321000CB589F4663460E001A43D8E743460E003C
:103220001A43D4E74B460E001A43D0E710230E0092
:103230001A43CCE753460E001A43C8E780235B00CD
:103240001A43FF3B9C467078E1444E4667284FD8AE
:103250002428A4D90300253BDBB2422B9FD89649F2
:103260009B00CB589F46002394461E0000E001318E
:10327000B3009B195B001E180878303E0300303BFA
:10328000092BF4D90123624689469C460023B046A7
:103290009A460E00E1442E28B3D1302180204942C5
:1032A0008C46C000024370784B468444614609292D
:1032B00000D86CE12A2800D17AE101239C464E46D1
:1032C000E1449EE7A146A846BA46CA4503D8012371
:1032D0005B425344994653464A4659460020C047EC
:1032E000200025B0F0BCBB46B246A946A046F0BDC2
:1032F0000300693BDBB20D930F2B00D94FE701218F
:1033000099408C466D49894661464B4619400F915C
:10331000634649460B4200D028E10D9B0A2B3AD068
:10332000072B00D03BE70C9B190008C98846002BEF
:1033300000D14BE121200243914614A98C461F2263
:103340000F2162448C4651460D950C91A246150002
:103350000F9902E020290CD0130064461C40200085
:103360003730092C00D80738013168541A090F2B5F
:10337000F0D80C9B54460D9D9A460F9133E10C9B5F
:1033800002CB8846002947DB0C9301239C467078CA
:103390004E46E14431E70C9B02CB14935346002B7D
:1033A00000D138E19C4608780B000C908C44002832
:1033B00001D100F098FC89466146944603E05A78B2
:1033C0000133002A01D08B42F9D1494662465B1A8B
:1033D0000C900F93530500D520E1022318001040F4
:1033E0000D90134200D1CBE30D930B1BB1469A46CF
:1033F0005E460C9822003B003100A847534601343A
:10340000185D0028F6D1B3464E460D9B002B00D028
:10341000C7E1149B0C93C9E60C9301239C46283802
:1034200049420243884670784E46E144E5E67078AA
:103430006C2800D17FE180235B001A43FF3B9C4650
:10344000E14402E780239B001A4301239C467078E5
:10345000E144FAE67078682800D173E180231A43CA
:103460007F3B9C46E144F0E6672800D103E1472812
:1034700000D15AE1452800D15AE104920721424681
:103480000C9B0392073352468B43190002920CC9DE
:103490002800009201930C9122003B005946FFF74F
:1034A0009FFB040082E6C0465D310010CC36002050
:1034B00070A70110B4A7011000A8011041900000EE
:1034C000462800D1DBE00492072142460C9B039280
:1034D000073352468B43190002920CC92800009210
:1034E00001930C9122003B005946FFF725F9040097
:1034F0005CE6631C984622003B0059462520A847FD
:10350000444653E60C9B04330D93631C9946920783
:1035100000D422E10C9B2200187859463B00A847B2
:1035200043464444012B00D885E23300B8462E00C0
:103530005F4625004C469946220043460134390037
:103540002020B047AC42F7D12C00BB46350047469F
:103550004E460D9B0C9329E6DB4B307898460023B2
:103560009946002800D012E60024AEE66F2800D16C
:1035700088E000D80BE31023782800D1CFE09A43ED
:103580000A239C4600230F930A330D9380E056468E
:10359000B1008919490001330E181878303E010036
:1035A00030390929F4D9B2461E000133994628E67C
:1035B0000C9B023602CB8A46C9435046C9170840C5
:1035C00082460C933078731C99461AE6102310003B
:1035D000984311331843814680201300C0000340F4
:1035E000024200D1A9E64B460693082305935346B1
:1035F000049310230393002302930F9B2200019353
:103600001CAB009359463B002800FEF79FFF434642
:1036100004000C93CAE501235B42C3E60F9B5345AC
:1036200001D953460F930223180010400D90134206
:1036300000D1B7E10D93D1460B1B9A463300A1444C
:103640002E0022004D460C98B9465F469B4608E086
:103650004B463900541CB0475346185D002877D0BC
:1036600022009542F4D15B46BB464F46A946350041
:103670004C461E00C9E680231B011A43FDE62023A9
:103680001A4320E708239C4600230F9308330D9329
:1036900080231100DB0019401A4200D116E10D23EE
:1036A0009A431000802302009B001A401492184293
:1036B00000D0C2E1802302005B001A4091460C9AC0
:1036C00004320F92184200D0B7E2430600D59FE1C2
:1036D000030600D419E30C9B1B880993002B00D030
:1036E000FCE110339843002900D1F7E1002399460B
:1036F00043460593534604930D9B06900393002382
:10370000D2E0582808D0622867D102239C460023C3
:103710000F9302330D93BBE720231A43103B9C46C3
:1037200000230F9310330D93B2E780231B011A433C
:1037300020231A43A1E6C0239B001A43F31C994699
:10374000B07882E5C0231A43F31C9946B0787CE533
:1037500035005E46BB464F4657E64346012B00D830
:1037600063E1631E43449A463300B9462E005F4628
:1037700055469B46A24622004B4601343900202084
:10378000B047AC42F7D135005E46BB464F46A14636
:1037900054460C9B4A46187859463B004444A84777
:1037A000D7E6A1460F9B984500D832E64444E41A78
:1037B0003300B8462E005F4625004C46994622004D
:1037C0004346013439002020B047AC42F7D12C00E9
:1037D000BB46350047464E461BE680231000DB0003
:1037E00018401A4200D10FE1112118008A430D92AE
:1037F0000D9A802311009B0019408C461A4269D112
:10380000802311005B00194089460C9904310F9107
:103810001A4200D0CAE113005B0600D5F0E01300A5
:103820001B0600D459E20C9B00229B5ED9175A1844
:103830004A4092B2D90F0C91002B00D1F9E110004F
:1038400014AA944642461F23149252466344A84643
:1038500016944D460400B946B2461F00159201E089
:10386000202D0FD020000A2100F00AFB01357E191F
:103870003031317020000A2100F002FB26000400E4
:10388000092EEDD8149B4F46A94645469846159BF0
:1038900056469A46169C0D9B0693434605935346FF
:1038A00004930A2303930C9B02934B4601931CAB96
:1038B0002200009359463B002800FEF747FE0F9B6D
:1038C00004000C9372E4C0469D2400100C239A431C
:1038D0001000E7E607220C9B07339343013294461E
:1038E0009C4462460C920CCBD90F0F9111001943E6
:1038F00000D191E0D9171391129151401091139971
:103900005940119110981199129A139B801A99415C
:103910001090119114AA002394464246994614929D
:1039200052461F336344A846B24616944E46109C36
:10393000119DB94615921F0001E0202E10D02000E5
:1039400029000A22002300F0D9FA013630322B0078
:10395000BA550D0022000400002BEED1092AECD844
:10396000149B1094119545469846159B4F46B146B9
:1039700056469A46169C0D9B06934346059353461E
:1039800004930A2303930F9B02934B4601931CABB2
:103990002200009359463B002800FEF7D7FD0400A3
:1039A000FFF704FC0F9B984500D8C1E18023DB00A2
:1039B0000D9343460F9A1B199B1A994633002E000C
:1039C0004D46B9465F469B460C9122004B4601345A
:1039D00039002020B047AC42F7D143460C9901335F
:1039E0000F930B7835000C935E46BB464F46002B79
:1039F00000D10EE50D9B002B00D1F6E4002319E663
:103A00000C9B1B781A0015E710239A430D92EFE6E2
:103A10000C9B1B78099361E6002399460028AAD1E4
:103A2000002200231092119374E70C9B2200187857
:103A300059463B00A8474C468BE50C9AFA3BFF3BA6
:103A400007329A430133994691444B460C931368CD
:103A5000526815921A4306D11032904300220992FF
:103A6000002900D081E06122810600D54122D2B236
:103A70000A9214AA91460A9A00210A3A14924246DE
:103A80001792524618925A460991B3461F311E00AA
:103A90000F9B4944BA4619941A95002467469846E4
:103AA0008946159D16901B920AE03032D2B24B46E1
:103AB00001341A55A8454AD0202C4AD006000D00E2
:103AC0003A0000233000290000F018FAD2B2092A87
:103AD000EBD9149B9C466244D2B2E8E7612382068C
:103AE00000D54123DBB20A3B0C93434614A91F22A5
:103AF0008C46159353466244A046B2464C461797EF
:103B0000A9461700099D0D9E1490169308E03033C6
:103B1000DBB201343B55B5420ED3202C0CD005004E
:103B20003100280000F0ACF9CBB20929EFD90C9A8A
:103B300094466344DBB2ECE7159B4D46A1464446F0
:103B40009846169B564614989A46179FD0E5B7425A
:103B5000B2D9179B57469846189B5E469A461B9BC0
:103B600009949B461698199C1A9D43460593534603
:103B700004930D9B0690039300230293099B05E792
:103B80000F9B984500D914E701330F932DE41023C0
:103B9000110099430D91692800D0BAE080231000EC
:103BA000DB0018401A4200D122E61DE60C9B1B6880
:103BB000DA0F1100002B00D18CE0DA179818504072
:103BC00014AA914642461F23149252464B44A046E3
:103BD000A946169704006546B2461F000C9115923F
:103BE00001E0202D0FD020000A2100F049F9013515
:103BF0007E193031317020000A2100F041F9260091
:103C00000400092EEDD8149B444698460C9BAC4604
:103C10001900159B56464D469A46169F0D9B0291DC
:103C2000069343460593534604930A23039363463E
:103C30003CE6002800D02EE602E60C9B1B68994665
:103C4000002B03D110339843002938D16123820619
:103C500000D54123DBB20A3B0C93434616935346EF
:103C600014A91F228C4617932B006244A0464D4690
:103C7000B246189799461700149C0D9E159008E0BF
:103C80003033DBB201343B55B5420ED3202C0CD07F
:103C900005003100280000F0F3F8CBB20929EFD974
:103CA0000C9A94466344DBB2ECE7169B14944446AA
:103CB0009846179B56464D469A461598189F434678
:103CC0000593534604930D9B0690039300230293A0
:103CD000149BEBE50028A1D172E70C9B1B68D91758
:103CE0005A184A40A6E580231000DB0018409C4685
:103CF0000F901A420FD00220030013400F9310427E
:103D000019D00023A1460F934CE50C9B1B68099327
:103D1000E4E40A0034E40223180010400D9013423A
:103D200000D03EE54346002B00D042E6FFF771FB92
:103D300001330F937FE463460D93F3E70EB4012242
:103D400030B584B007AC08CC064D010000942800C3
:103D500052420394FFF702FA04B030BC08BC03B02F
:103D60001847C0469524001010B50C0084B0039489
:103D7000012402A902900093034813006242FFF756
:103D8000EDF904B010BDC0462927001010B5094A4E
:103D90000300146884B0002C08D00122009106486A
:103DA000524203A9A047012004B010BD01F078F9E8
:103DB0000020F9E7CC360020192700100148042123
:103DC000014B1847E01F0020ED3D0010002310B507
:103DD0000100988A1B8B984710BDC046162310B56A
:103DE0000100188802331B88984710BDF8B5474674
:103DF000CE4680B50F1E18D0142399460433040014
:103E00000025012698464B461888434621681B88A2
:103E1000984701C4431E984101350640AF42F2D194
:103E20003000C0BCB946B046F8BD0126F8E7C04630
:103E3000124A936F9B0815D29066D166002905D06F
:103E4000FFE7FFE7FFE7516F106F704704B5802170
:103E50000906C2175140002800D0C84315F0FCFDE8
:103E6000002104BDF0B5146E556E576F166FFFF745
:103E7000E3FF1466556657671667F0BD000000D073
:103E8000114A936F9B0813D210665166002905D022
:103E9000FFE7FFE7FFE7516F106F704704B5002899
:103EA00001D00020C04315F0D7FD002104BDC0465D
:103EB000F0B5146E556E576F166FFFF7E5FF146679
:103EC000556657671667F0BD000000D094464A4A11
:103ED000926F9208624601D228E0C046F0B5464E85
:103EE000346E756E776F366F00F020F89446424A54
:103EF00014665566576716676246F0BD94463E4A9B
:103F0000926F9208624601D254E0C046F0B53A4E34
:103F1000346E756E776F366F00F04CF89446364A03
:103F200014665566576716676246F0BD002B24DBA2
:103F300011D000293EDA00B5C943404200D1013119
:103F400000F038F8C943404200D10131DB4352420E
:103F500000D1013300BD002AEBD1002801D1002996
:103F600005D00020C90FC90701D1C043410800B5E1
:103F700015F03AFD0022002300BD00B500290ADB40
:103F8000DB43524200D1013300F014F8C9434042F0
:103F900000D1013100BDC943404200D10131DB43B2
:103FA000524200D1013300F005F8DB43524200D108
:103FB000013300BD002923D1002B18D1002A0CD0D9
:103FC000BC460D4F38667A6600210023FFE7FFE705
:103FD000FFE77A6F386F67467047002801D00748BF
:103FE000010000B515F000FD0022002300BD020015
:103FF0000B00002000217047000000D0FFFFFFFFF2
:10400000002B00D0BFE0130C28D1002AE7D080B4E9
:10401000114F39667A66FFE7FFE730B4040C7B6F17
:10402000396F1B0423433B667A66FFE7FFE7FFE730
:10403000C04684B27B6F3D6F1B0423433B667A66A8
:10404000FFE7FFE7C04600232C042D0C7A6F386F82
:1040500000196941B0BC7047000000D0F0B594462B
:104060000025140E01D112020835140F01D11201DE
:104070000435940F01D192000235D40F01D15200C2
:104080000135D40B0134254F7C66254C3C660E0C63
:1040900093B2FFE7FFE7FFE73C6F6643360C770319
:1040A000BE467343DF0B5B04C01AB941130C734364
:1040B000DB18C91ACE086643360CB64493B2734374
:1040C0001F0F1B01C01AB941130C73431F0B1B05B3
:1040D000C01AB941860D8F023E436643360C092D46
:1040E00024DB520A7243801A7703460A6643360C71
:1040F00016235B1BDE40DF40BF1964466643821B0C
:104100007046043506330100D940A840C01900D3D9
:104110000131A24206D20023F0BD0000000000D011
:10412000FFFFFFFF121B0130F3D3F1E709277F1BCD
:10413000FE406446A2B27243801A00D20139220CBA
:104140007243130C1204821A99410B007046043515
:1041500013370100F940A840801900D30131002B2A
:1041600002D1A2420AD2F0BD013000D30131121BAC
:10417000FAD2013BF8D1A24200D2F0BD013000D307
:104180000131121BF7E7F0B51C0C00D080E00CB435
:1041900000251C0A04D11B02160E334312020835F7
:1041A0001C0B04D11B01160F3343120104359C0B69
:1041B00004D19B00960F334392000235DC0B02D1F1
:1041C00092185B4101351C00971864410134464F39
:1041D0007C66464C3C660E0CFFE7FFE7FFE7C046F7
:1041E0003C6F6643360C7703BE4697B27743C01BDD
:1041F00000D20139C01B00D201399FB27743C91BDD
:10420000C91B170C77437E04FF0B801BB941CE08F6
:104210006643360C0C2D33DBB644120B1F053A43B4
:104220001B0B97B27743C01B00D201399FB2774373
:10423000C91B170C77433E043F0C801BB941860D08
:104240008F023E43664329277F1BFE400C3D774685
:10425000AF40BF1930BCA2B2ABB272437343801AF5
:104260009941220C7243130C1204801A99410200E6
:104270000B000137001BA941F9D2781E0021F0BDC7
:104280000C277F1BFE4077467F0BAF40FF19E0E70E
:1042900000245D1C07D0144F7D663966FFE7FFE7F9
:1042A000FFE7FFE73C6F95B29EB265436643401B54
:1042B000B141150C1E0C6543664336042F0C3E437A
:1042C0002D04401BB141994204D202000B00200092
:1042D0000021F0BD01D19042F7D3801A99410134F9
:1042E0009942F2D3F6E70000000000D0FFFFFFFF85
:1042F00048404140484018B41B4B5B68FC46019362
:1043000008BD04DFAB45001018B4174B1B68FC4612
:10431000019308BD00DFB54500109446134A926F23
:10432000920809D2624618B40F4BDB68FC46019331
:1043300008BD0CDF6D4800100C4AF0B5146E556EC8
:10434000576F166F6246FFF7EEFF084A1466556610
:1043500057671667F0BD18B4034B9B68FC46019382
:1043600008BD08DF1147001078270020000000D0AA
:10437000FFB550404240504059404B40594000E04A
:10438000FFB5154F4C00640D03D0BC4204D10C03A3
:1043900014D80020090D09055C00640D03D0BC424F
:1043A00004D11C030AD800221B0D1B0501264B401B
:1043B00009D44B4003D58B4200D18242FFBD9942C4
:1043C000FCD19042FFBD0B43DB1803431343F5D0F0
:1043D000C9434918FFBD0000FF07000000B5FFF703
:1043E000CFFF804100BDC04600B5FFF7C9FF01D92E
:1043F000002000BD012000BD00B5FFF7B9FF01D9C5
:10440000002000BD012000BD00B5FFF7B1FF8041D5
:1044100000BD012040054A00121804D85A001218A5
:1044200001D800207047012070470020704700002D
:104430000021002805D17047C1174840401AFAD022
:10444000C90713B5064B1B6898470CBC441CA24017
:104450001005120B0349091B09051943114310BD2F
:10446000703800201F04000010B54C00620D80233E
:10447000D218DB00D21A5B057E2A10DD9E3A13DAD1
:10448000CC170903490819435242D1406400013452
:104490001532202A05DAD0400843604310BD0020C1
:1044A00010BD0846604310BDC80FC018013810BDCC
:1044B00018B4044B5B6AFC46019308BD24DF1D4A17
:1044C000001000007827002018B4044BDB6FFC4676
:1044D000019308BD7CDF9D4A001000007827002072
:1044E000132370B51D78012D15D010DD1D48FFF781
:1044F00075FC1D4C01008022200000F0E7FC022D1D
:104500002DD01A48FFF762FC194B186070BD194B8B
:10451000154CA364F5E7174B134C23606360A3604D
:10452000E36023616361A361E36123626362A36269
:10453000E36223636363A363E36323646364A36449
:10454000E36423656365A365E36523666366A36629
:10455000E36623676367A367E367A364D1E7054B5B
:10456000A364CEE753440000782700204C330000BA
:10457000703800207945001007B5604601880A0AA6
:104580000230DF2AFAD1C9B2820804D302884088F7
:104590000004104300E00068014A5050039007BD3A
:1045A000782700200FB403BC0CBCF0B50124E4074D
:1045B000634000E0F0B50C0DCF0F661E3605891B79
:1045C000640503D3C943404200D30131640D03D0D5
:1045D000661CF60A07D0E41B00207F00791C8907BF
:1045E0008912803C24031D0DDF0F6E1E36059B1BB8
:1045F0006D0503D3DB43524200D301336D0D03D06D
:104600006E1CF60A07D0ED1B00227F007B1C9B0767
:104610009B12803D2D032F1B661B58D4A446202ED1
:1046200046DA20371400BC401D00BD40F240334143
:104630002A4380185941CB0F05D0C943C0430022FB
:1046400064425041514162464D0D28D10D0D07D1B4
:1046500000281FD0241940414941013A0D0DF9D0DD
:10466000640006D3013000D30131002C01D1400891
:104670004000013A0BD4941CE40A04D11205114401
:10468000DB071944F0BDD907204B194300E0D907D7
:104690000020F0BD0029DDD1002CDBD1F0BD0132BE
:1046A000C6074008CD0728434908002EE1D0D9E7C6
:1046B0003C2E29DA203E40371400BC4000D00124B3
:1046C000F24014431A00BB401C43D317ACE7AC467E
:1046D000202F08DA20360400B4400D00B540F84021
:1046E00039412843A5E73C2F0CDA203F403604002F
:1046F000B44000D00124F84004430800B1400C430A
:10470000C117EAE710001900002494E70000F07FC9
:10471000F0B50C0D661E3605891BE60A6405640DAE
:1047200002D0651CED0A04D0002001210905803C5F
:104730002403A4461C0D671E3F05DB1BE70A640526
:10474000640D02D0651CED0A04D0002201231B0574
:10475000803C24037740644497B484B296B2744397
:10476000070C7E43150C6F4380B26843361802D3A2
:10477000012000043F183004350C00197D418446A7
:1047800088B29AB250430C0C62431F0C7C438EB229
:104790007E43921902D301263604A4191604170C7D
:1047A0003618674101BC81B29AB25143040C62438E
:1047B0001B0C5C4380B25843121802D30120000442
:1047C00024181004130C401863412D185E4100207A
:1047D000474106BC88B293B258430C0C6343120C99
:1047E000544389B251435B1802D301210904641870
:1047F00019041A0C091862416D18564100204741EE
:1048000018BCF902720D1143F0026A0D1043ED025B
:104810000A0D03D16D1940414941013B124E9B1BCA
:104820007600B3420ED26D0007D3013000267141ED
:104830006646354301D1400840001B05C918E4070E
:104840002144F0BD0BDA013306D1013004D101312E
:104850004F0D01D04908F2E7E1070020F0BD013615
:1048600031050020EBE70000FF030000F0B51C0D50
:10487000671E3F05DB1BE70A6405640D02D0661C5A
:10488000F60A04D0002201231B05803C2403D02516
:104890002D060026F6432E661E096E66CE0FF6190B
:1048A000B44649004F0D02D07E1CF60A03D000200A
:1048B0000021403F3F033E1BB600B444013F7F054B
:1048C000C91B49082E6F013676089C02950D2543B9
:1048D0007543ED137543AD1301356D10F603761B6B
:1048E0000CB4CC02450D2C43A2B2B3B25A43270CF0
:1048F0007B43350C6F43A4B26C431B1902D30124D4
:1049000024043F191C041D0CA4187D4124196D4179
:10491000009A91B2ACB26143170C7C432B0C5F43FD
:1049200092B25A43A41802D301221204BF182204DF
:10493000230C52187B41019C6C431B19520ED90168
:104940000A434401A01A81B2B2B2514303145A433C
:10495000360C734387B27743D617D21900277E41AE
:1049600036049B191704160C7F185E417316ED1858
:10497000F301002680337541A90F06D16400690A4E
:10498000E8055B0A184309D22FE0042294448033DF
:104990007541A90AA8059B0A184326D340414941FD
:1049A0002404009A019B0D005543641B4343E41A01
:1049B00095B286B27543170C7E43030C5F4392B2E7
:1049C0005A43B61802D301221204BF183204330C22
:1049D00052197B4152429C41002C02D400220130EA
:1049E00051414008CA071043490802B06246D70740
:1049F0009210084BD218084B9A4203D2120589181C
:104A0000C919F0BD0020002A01DC3900F0BD0133D6
:104A10001905F5E7FD030000FE070000002200B5C0
:104A2000203200F004F8080000BD000000220B1541
:104A30000AD410B5944600F05FF81414013400DA7B
:104A40000021CB17144C20470020002170476244FE
:104A5000343A0CD40C2A07DA0400914090405242B8
:104A60002032D440214310BDD843D94310BD203259
:104A700007D40C469440524220321141D04020438A
:104A800010BD0800C917203203D452422032104111
:104A900010BD1800190010BD4F4A00104A00520DF9
:104AA000144BD21A13DDFF2A1EDAD205CB0FDB0717
:104AB0001A43C300400F0903490A084310435B002F
:104AC00001D301D0013070474308FBD2704702D0B8
:104AD000C80FC00770470A0312130132F8D1420F02
:104AE000072AF5D1012200E0FF22C80F000280183A
:104AF000C0057047800300000A0DCC0F531E1B0534
:104B0000C91A520503D3C943404200D30131520DA3
:104B100003D0531CDB0A07D0121B00206400611C69
:104B200089078912803A1203014BD21A704700009C
:104B3000FF03000051434343C9188C46110C83B254
:104B40004B4310B4040C614392B280B250436243B1
:104B50001C041B0C001910BC59411304120CC01882
:104B600051416144704700004840414048400E4B6D
:104B70005B6818470C4B1B6818470C4A936F9B08DF
:104B800002D2094BDB681847F0B5146E556E576FAB
:104B9000166FFFF7F6FF054A1466556657671667E6
:104BA000F0BD014B9B68184778280020000000D01A
:104BB00007B548404140484001E0C04607B54200C3
:104BC000120E03D0FF2A03D1420218D8C00DC0052F
:104BD0004A00120E03D0FF2A03D14A020FD8C90D92
:104BE000C9050122414005D4414001D5814207BD9C
:104BF000884207BD0143491801D0C043001807BDD2
:104C000000B5FFF7DBFF804100BDC04600B5FFF7F0
:104C1000D5FF01D9002000BD012000BD00B5FFF780
:104C2000C7FF01D9002000BD012000BD00B5FFF77E
:104C3000BFFF804100BD491A002807D108467047D0
:104C4000C10FC90700D54042002817D0F44603B46D
:104C50000B4B1B68984706BC81409E384042803110
:104C600007D20B0607D04900490AC0051043084384
:104C700060470130F8E7490A8902F5E7704700000C
:104C80007038002041000A0E80231B067E2A0BDDAF
:104C90009E3A0BDAC1174002400818435242D040F6
:104CA000490001314843704700207047C00FC018C9
:104CB00001387047C0420DD300B5400040080021C4
:104CC00000F012F8002801D4404200BD8020000608
:104CD00000BD0000034BDB69FC4618471CDF194E82
:104CE0000010000078280020014B5B6A1847000084
:104CF00078280020034BDB6FFC4618477CDF314EE1
:104D00000010000078280020132310B512481C78EA
:104D1000FFF764F80100012C0AD003DD80220F4860
:104D200000F0D4F80E48FFF751F80E4B186010BD94
:104D30000A4C5422200000F0C9F80B4B6365A365B0
:104D4000E36523666366A366E36623676367A36719
:104D5000E3672362E361E5E753460000782800201B
:104D60004C33000070380020ED4D001043001B0E46
:104D700012D07F3B0CD41722D21A002A07DD012360
:104D80009340C217591E0A4010185B4218407047E2
:104D9000002804DA0348FAE7C00FC007F7E700204D
:104DA000F5E7C046000080BF420010B5031C0400B8
:104DB000120E11D07F3A0AD417218A1A002A05DD73
:104DC00001209040002B0ADA4042204010BD00280C
:104DD00008DA80200006F9E7C30FD807F6E7441E7B
:104DE000E418F1E7FE208005F0E7C04607B560460D
:104DF00001880A0A0230DF2AFAD1C9B2820804D334
:104E0000028840880004104300E00068014A5050C6
:104E1000039007BD782800200021C215803280321F
:104E200001D0024A1047002070470000CD2A000040
:104E3000C30FDB0741000A0E07D0FF2A08D009097B
:104E4000054A891819434007704719000020704728
:104E50000249C918FAE70000000000380000F07F9E
:104E600010B5040012F000FD002804D0034B041913
:104E70009C4200D810BD0248FDF7EEFA0000042065
:104E8000F49B011010B50C0012F0FAFF002804D0BA
:104E9000034B04199C4200D810BD0248FDF7DCFA10
:104EA00000000420F49B011010B512F0E7FC10BDC7
:104EB00001480421014B1847F01F0020ED3D001070
:104EC000014B1B6818470000F01F0020014B5B6876
:104ED00018470000F01F002010B5FFF7C1FF10BDFC
:104EE00010B5FFF7BDFF10BD10B5FFF7DDFF10BD1A
:104EF00010B5FFF7D9FF10BDF0B5C64600B5437D2C
:104F000007000C001600002B46D0002A17DD0B7896
:104F10000A2B24D000239846012E13D00125290006
:104F2000635C01350A2B26D0B542F8D1464509DC31
:104F3000A419013C23780D3B5A4253413B7580BC78
:104F4000B846F0BD4346E018A419F11A013C3B688D
:104F5000984723780D3B5A4253413B75EFE7037D59
:104F6000002BD7D102210F483B689847012EDFD094
:104F700001239846D2E7631E5B5C0D2BD4D0884595
:104F800004DA4346C91AE0183B68984702210548ED
:104F90003B68A8469847C7E7036811002000984778
:104FA000CDE7C04684A90110F0B5C6460B680600DF
:104FB0000C0000B5802B06D05A1C2260E418267124
:104FC00080BCB846F0BD0F4B1D68002D16D00B1DE0
:104FD00098460D4F02E02D69002D0FD02B68002B55
:104FE000F9D03B68002B01D0AB42F4D128004146F8
:104FF0002268FFF781FF2D69002DEFD101220023E8
:10500000DBE7C046A0320020AC320020F0B5CE462F
:10501000474680B583B06B460600DD1D2870FCF75F
:1050200089FB0023194A12184B41002B02DA012296
:10503000174B524217490800884614F045FD164B9D
:1050400081461C68002C14D0144F02E02469002C07
:105050000FD02368002BF9D03B68002B01D09C4275
:10506000F4D1200001222900FFF746FF2469002C1B
:10507000EFD14B46002B05D1300003B0C0BCB94680
:10508000B046F0BD404614F0A7FCF5E740420F00E3
:10509000FFFFFF7F1C260020A0320020AC32002042
:1050A000F0B5DE464E4645465746E0B583B00600AD
:1050B00013F022FF0500FCF73DFB0023284A1218DD
:1050C0004B41002B02DA0122264B524226490800AE
:1050D0008B4614F0F9FC254B81461C689A46002C3F
:1050E00038D00A23224F984602E02469002C17D0BA
:1050F0002368002BF9D03B68002B01D09C42F4D1EF
:1051000020002A003100FFF7F7FE6B4642462000E0
:10511000DA71D91D0122FFF7EFFE2469002CE7D1D7
:105120004B46002B18D153461C68002C06D06368F0
:10513000002B0BD098472469002CF8D1280003B02D
:10514000F0BCBB46B246A946A046F0BD2469002C7F
:10515000EDD1F3E70028F1D0584614F03DFCE2E72A
:1051600040420F00FFFFFF7F1C260020A0320020DE
:10517000AC320020F8B557464E46DE464546E0B50F
:105180000E00170000282CD11B4B1C4D1A685B68C1
:1051900093469A461A4B99461A4B98464B461C68BA
:1051A000002C03D115E02469002C12D02B68002BB1
:1051B00001D0A342F7D1A368002BF4D0390030000E
:1051C00098470028EFDDF0BCBB46B246A946A04692
:1051D000F8BD43465B6A9A4508D84246926A5A45EA
:1051E00002D301204042EEE79A45FAD10120002186
:1051F000FCF7AAFAD2E7C04668A70110AC3200203B
:10520000A032002000400540F0B54646D6464F4645
:105210000138C0B515000E0001283ED8FCF78AFA07
:1052200000231F4A12184B41002B2EDB1D49A846B4
:1052300008008A4614F048FC81466B1C03D13000FC
:1052400013F05AFE8046184B1C68002C14D0174FE0
:1052500002E02469002C0FD02368002BF9D03B68B2
:10526000002B01D0A342F4D1200042463100FFF7C9
:1052700043FE2469002CEFD14B46002B09D12800B6
:10528000E0BCBA46B146A846F0BD0122084B5242E6
:10529000CCE7504614F0A0FBF1E701204042EFE7D5
:1052A00040420F001C260020A0320020AC3200201B
:1052B000FFFFFF7F012040427047C046012040426F
:1052C0007047C046012040427047C046030002229A
:1052D00000209A42404170470A4A1368002B05D1CA
:1052E0000CE01A001B691032002B07D08342F8D162
:1052F000002902D118691060196170470029FCD09B
:105300001060FAE7A0320020F0B5CE46474680B5DF
:10531000A3B004000D00FCF70DFA0023274A121871
:105320004B41002B02DA0122254B5242254E300020
:1053300014F0CAFB00232200019307002B0022482F
:1053400001A9FEF711FD214B804699461C68019B7F
:10535000002B1AD0002C2FD01D4D02E02469002C08
:105360000FD02368002BF9D02B68002B01D0A3426B
:10537000F4D12000019A02A9FFF7BEFD2469002C98
:10538000EFD14B461C6800230193002C06D06368C4
:10539000002B0BD098472469002CF8D1002F07D19F
:1053A000404623B0C0BCB946B046F0BD2469ECE726
:1053B000300014F011FBF3E70194EFE740420F00D7
:1053C000FFFFFF7F1C260020A94F0010A032002005
:1053D000AC3200200FB400B583B004A901C901911B
:1053E000FFF792FF03B008BC04B0184710B500F0F7
:1053F000CDF800F0C1FA012010BDC046F0B500297B
:1054000015DD0E4B0D271A680D4B0E4CD3185D425F
:105410006B41451820215B001E5F0478A64207D02F
:1054200093691942FCD101301460A842F5D1F0BD56
:1054300093691942FCD11760F2E7C0469438002006
:105440000080FCBF90380020214B70B504000D1E79
:105450001E682CDD002010211E4B013C1A68936948
:10546000194215D1013093691942FCD113682354B4
:105470008542F4D1002E09D0502338219363536B19
:105480003432194080235B0113431960280070BD3A
:10549000002E09D0502338219363536B34321940C6
:1054A00080235B011A4311600028F0D10DE0002E2B
:1054B0000BD050223821074B1B689A635A6B343348
:1054C0001140802252011343196003204042DEE75D
:1054D0002432002094380020064B10B51B68002BA6
:1054E00006D00021044A12689163044A1068984764
:1054F00010BDC04624320020943800202C320020F9
:105500001D4BF0B51A68C64698461C4B0E00D318C2
:1055100059424B411A4F14331C00050000B53B683B
:10552000002807D0002B11D0164B3D601E6080BCB8
:10553000B846F0BD002BF7D0906300212000FBF7A8
:10554000C7F920001049FBF71FFBEDE720000E49CB
:10555000FBF7F6F901212000FBF7BAF94346502288
:1055600038211B689A635A6B3433114080225201F0
:1055700013431960D8E7C046943800200080FCBF70
:10558000243200202C320020D95400100C4B10B5CE
:105590001B780C4B0C4C1B780C4B02210020236019
:1055A000FBF752F802210120FBF74EF8E1212068B9
:1055B0004902FCF7C5FB01210548FFF78DFE10BD30
:1055C000ACCC0110A8CC011094380020004003405E
:1055D000002000207047C0460022014B1A7070471F
:1055E000B03800204B790020FF2B0BD18B79002B9A
:1055F00008D1CB79012B05D1082A03D9024B8A782F
:1056000009301A707047C046B0380020012070473A
:1056100070B5012913D114495379107909781B0207
:1056200003430020994200D070BD5378012B08D06D
:10563000022BF9D1642200210020FCF70DFE01208D
:10564000F2E79478D278050012021443D20502D50D
:10565000620A93401D000548FEF7B8FB7F21030056
:10566000214028009847C046B0380020554200002D
:1056700001230370004870479CA901104B780A78F9
:105680001B0213438A7810B512041A43CB781B0609
:1056900013439622D200934200D010BD0348FEF778
:1056A00095FB0021030008009847C04655420000C2
:1056B000024B1860024B19607047C0462832002028
:1056C0003032002010B5024B1878FBF713F910BDEB
:1056D000B1380020114B70B51A68002A1AD0EFF3C8
:1056E000108172B610680028FCD0BFF35F8F0020D5
:1056F0000B4A596010701B68BFF35F8F186081F30D
:10570000108800240025074B1878FBF7F3F82900D0
:10571000200070BDFA240025A400F4E7DC36002048
:10572000B2380020B138002070B5040000200E000F
:1057300001F0DEFA002834D0002001F0F1FA002850
:105740002FD0FBF7F7FF0023174A12184B41002B0D
:1057500016DB164D280014F0B7F9002821D00020E0
:1057600001F0C6FA00280FD101200021404200F0CC
:10577000BBFC03246442280014F02EF9200070BD05
:1057800001220B4B5242E4E7002001F0C9FA002845
:10579000EAD021003200002001F0CEFA041EEAD146
:1057A000E7E703246442E9E740420F00783800202D
:1057B000FFFFFF7FF8B5DE46574680B505000C00B9
:1057C000FBF7B8FF0023364A12184B41002B02DAD0
:1057D0000122344B5242344908008A4614F074F9CD
:1057E000002803D1C0BCBB46B246F8BD002001F082
:1057F0007FFA00284AD00026002C43DD2B4B9B4625
:1058000014E0A919002001F009FB07000120002184
:10581000404200F069FC002001F0C4FAFBF78AFF67
:10582000224BF61918605960B4422BDD002001F0BC
:105830000FFBA71B0200B84200DD3A00002AE0D1AE
:1058400001200021404200F04FFC002001F0AAFAA4
:10585000002001F04DFA002814D0002001F0F8FAE1
:105860000028E1D1FBF766FF5B460F001A685B6812
:10587000002184460E4812184B419F4202D8D3D1D2
:105880009445D1D9504614F0A7F8ABE70020002189
:10589000064B18605960504614F09EF8A2E7C046C7
:1058A00040420F00FFFFFF7F783800207027002064
:1058B00020A1070010B5234C84B00021200014F073
:1058C000DBF800281CD1204B1A68002A16D0EFF311
:1058D000108172B610680028FCD0BFF35F8F0124DE
:1058E0001A48596002781B68D2B20470BFF35F8F08
:1058F0000020186081F31088002A0AD004B010BD7F
:1059000001200021404200F0EFFB200014F064F879
:10591000F4E7FBF791FC0400FBF70CFFFA220023ED
:10592000920012184B41002B02DA0122084B52421E
:105930000121029100210191064920000091FBF70D
:105940007FFCDBE778380020DC360020B23800200E
:10595000FFFFFF7FD5560010054B10B518680028D3
:1059600004D0044B0022196801F034F810BDC04681
:105970002832002030320020D02310B51B0684B01E
:105980001C68FBF759FCFBF715FDA04202D0002074
:1059900004B010BD264B1B7801F03CFC2548FBF7FA
:1059A0005BFA0120FBF73AFAFF23234C23492070CE
:1059B0001840FAF7C5FF20780121FAF789FF052082
:1059C000FAF7A0FF002825D1FBF736FC0400FBF70F
:1059D000B1FEFA220023920012184B41002B02DA8A
:1059E0000122174B524201210291002101911549D8
:1059F00020000091FBF724FC08220400002112483B
:105A0000FFF75EFA002CC2DB10480121FFF764FCAF
:105A10000120BDE700220E490520FAF7BBFFFAF787
:105A200039FF094B01001800FBF740FAECE7C046CC
:105A3000B0CC011078380020B1380020B5580010E3
:105A4000FFFFFF7FD5560010DC3600201820002015
:105A5000C5560010004870472CAA01100048704736
:105A6000D8A9011010B5040017480378002B20D0E6
:105A7000002C06D1154B16484380063BFF3B0380A4
:105A800010BD052C1DD8134BA400E058124901236A
:105A9000013804E001330A800231142B0DD0C25CBE
:105AA000002AF7D1C022DBB25B0092000848134302
:105AB000E5E7112100F01AF8DAE7CA2304489B0051
:105AC000DDE70020DCE7C04698380020090400002C
:105AD00078320020C0A901107A32002010B50248A7
